:100000000C945E000C9486000C9486000C94860080
:100010000C9486000C9486000C9486000C94860048
:100020000C9486000C9486000C9486000C94860038
:100030000C9486000C9486000C9486000C94860028
:100040000C947F050C9486000C944D050C942705A8
:100050000C9486000C9486000C9486000C94860008
:100060000C94C9050C9486000000000800020100F1
:100070000003040700000000000000000000000072
:10008000250028002B0000000000240027002A0083
:10009000040404040404040402020202020203032E
:1000A0000303030301020408102040800102040836
:1000B0001020010204081020E806E20711241FBEE8
:1000C000CFEFD8E0DEBFCDBF22E0A6E4B1E001C0B3
:1000D0001D92A43AB207E1F711E0A0E0B1E0E8EE2A
:1000E000F8E102C005900D92A634B107D9F710E0EF
:1000F000CDE5D0E004C02197FE010E946F0ACC3507
:10010000D107C9F70E942F070C94670C0C940000CC
:1001100090E0FC01EC55FF4F249180579F4FFC016C
:100120008491882399F090E0880F991FFC01EA5789
:10013000FF4FA591B491FC01E458FF4F8591949134
:100140008FB7F894EC91E22BEC938FBF089508954C
:10015000CF93DF93AC01E091EF01F091F001309784
:10016000F1F09091EE018091ED019817C0F090E0D0
:10017000292F30E02617370754F4D901A25BBE4F70
:10018000240F351FE90128812C939F5FF1CF109236
:10019000EE016093ED01CB01DF91CF910994DF91E6
:1001A000CF910895AF92BF92CF92DF92EF92FF92DC
:1001B0000F931F93CF93DF936C017B018B01040F8F
:1001C000151FEB015E01AE18BF08C017D10759F02B
:1001D0006991D601ED91FC910190F081E02DC6016D
:1001E0000995892B79F7C501DF91CF911F910F9167
:1001F000FF90EF90DF90CF90BF90AF900895FC01FB
:10020000538D448D252F30E0842F90E0821B930B7B
:10021000541710F0CF96089501970895FC01918D21
:10022000828D981761F0A28DAE0FBF2FB11D5D9624
:100230008C91928D9F5F9F73928F90E008958FEFC6
:100240009FEF0895FC01918D828D981731F0828D7A
:10025000E80FF11D858D90E008958FEF9FEF0895D1
:10026000FC01918D228D892F90E0805C9F4F821B35
:1002700091098F739927089581EF91E00E943001D1
:1002800021E0892B09F420E0822F089580E090E09E
:10029000892B29F00E943C0181110C9400000895E3
:1002A000FC01A48DA80FB92FB11DA35ABF4F2C91EB
:1002B000848D90E001968F739927848FA689B789E2
:1002C0002C93A089B1898C91837080648C93938DD9
:1002D000848D981306C00288F389E02D80818F7D7C
:1002E00080830895EF92FF920F931F93CF93DF9334
:1002F000EC0181E0888F9B8D8C8D98131AC0E88962
:10030000F989808185FF15C09FB7F894EE89FF8930
:100310006083E889F98980818370806480839FBFCE
:1003200081E090E0DF91CF911F910F91FF90EF90CE
:100330000895F62E0B8D10E00F5F1F4F0F731127DE
:10034000E02E8C8D8E110CC00FB607FCFACFE88919
:10035000F989808185FFF5CFCE010E945001F1CF50
:10036000EB8DEC0FFD2FF11DE35AFF4FF0829FB78D
:10037000F8940B8FEA89FB8980818062CFCFCF937D
:10038000DF93EC01888D8823B9F0AA89BB89E889BD
:10039000F9898C9185FD03C0808186FD0DC00FB663
:1003A00007FCF7CF8C9185FFF2CF808185FFEDCFE1
:1003B000CE010E945001E9CFDF91CF91089590E0E6
:1003C000FC01E859FF4F2491FC01EC55FF4F34919B
:1003D000FC01E057FF4FE491EE23C9F0222339F0EE
:1003E000233001F1A8F4213019F1223029F1F0E095
:1003F000EE0FFF1FE458FF4FA591B4918FB7F8940B
:10040000EC91611126C030953E233C938FBF089537
:100410002730A9F02830C9F0243049F780918000B6
:100420008F7D03C0809180008F7780938000DFCF25
:1004300084B58F7784BDDBCF84B58F7DFBCF809172
:10044000B0008F778093B000D2CF8091B0008F7DC5
:10045000F9CF3E2BDACF1F93CF93DF93182FEB0109
:100460000E948800209739F460E0812FDF91CF91BE
:100470001F910C94DF01CF3FD10511F461E0F5CF5E
:10048000E12FF0E0E859FF4FE491E33031F140F41F
:10049000E130B1F0E230E1F0C038D1057CF7E4CFD3
:1004A000E73029F1E83059F1E430B1F7809180006C
:1004B000806280938000D0938B00C0938A0004C038
:1004C00084B5806884BDC7BDDF91CF911F91089529
:1004D00084B5806284BDC8BDF7CF809180008068FC
:1004E00080938000D0938900C0938800EDCF8091E5
:1004F000B00080688093B000C093B300E5CF8091D6
:10050000B00080628093B000C093B400DDCF209132
:100510009401260F3327331F21323105ECF420914B
:10052000B801FC0190E080E0243069F082E0089599
:10053000A09194012191AC014C585E4FA40FB52FAE
:10054000B11D2C930196861798F380919401680F42
:100550006093940180E0089581E008951092B801BD
:1005600081E08093BA011092B90161E082E10E94BA
:10057000DF0161E083E10E94DF01E9EBF0E08081CF
:100580008E7F808380818D7F808388E48093B80014
:1005900085E48093BC0008950895E091EE01809178
:1005A000ED01E81730F4F0E0E25BFE4F808190E06F
:1005B00008958FEF9FEF08959091EE018091ED01E6
:1005C0002FEF3FEF981748F4E92FF0E0E25BFE4F82
:1005D000208130E09F5F9093EE01C90108958091E2
:1005E000ED019091EE01891B990B0895CF93DF9354
:1005F000CB01EA01642F0E948702CE01DF91CF91E7
:100600000895CF93DF931F92CDB7DEB7698361E082
:10061000CE0101960E94870281E090E00F90DF9169
:10062000CF91089590E080E00895FC0101900020B2
:10063000E9F73197AF01481B590BBC0181EF91E0FD
:100640000C94D2000F931F93CF93DF93EC0188811A
:100650009981009759F02A813B812617370730F09E
:1006600081E0DF91CF911F910F9108958B016F5F12
:100670007F4F0E949A0B009759F0998388831B83C0
:100680000A832C813D81232B59F7FC011082E8CF8E
:1006900080E0E7CFCF93DF93EC01888199810097C9
:1006A00011F00E94110B198218821D821C821B827C
:1006B0001A82DF91CF910895EF92FF920F931F93CB
:1006C000CF93DF93EC017B018A01BA010E942203E0
:1006D00081110BC0CE010E944A03CE01DF91CF9160
:1006E0001F910F91FF90EF9008951D830C83B70128
:1006F000888199810E94600CF0CFCF93DF9385EDC4
:100700008093BC008091700190917101A091720161
:10071000B09173010796A11DB11D23E0B695A79571
:10072000979587952A95D1F72091BC0024FD03C0A9
:100730001092B80136C040917001509171016091E2
:10074000720170917301452B462B472B69F300977B
:10075000A105B10541F025E32A95F1F700000197C5
:10076000A109B109E1CF80916F0191E090936E01F1
:100770008823B9F0C091B800D091BA008091BC0034
:100780008A7B8093BC0060E082E10E94DF0160E030
:1007900083E10E94DF010E94AE02D093BA00C093B1
:1007A000B800DF91CF9108958F929F92AF92BF9240
:1007B000CF92DF92EF92FF920F931F93CF93DF932D
:1007C000CDB7DEB7A3970FB6F894DEBF0FBECDBF8F
:1007D00050E040E06CE371E08AE992E00E945C0343
:1007E0009091ED018091EE01981709F451C08EE8C7
:1007F00092E00E94DC02182F1A8219821C821B824E
:100800001E821D8260919A0270919B026115710592
:1008100041F040919E0250919F02CE0101960E94AC
:100820005C031AA31BA20D811E810F5F1F4FB8012D
:10083000CE0101960E942203882301F129813A8189
:100840008D819E81BE016E5D7F4F820F931F0E943E
:10085000600C1E830D8369817A816115710599F0A1
:100860004D815E818AE992E00E945C0389819A81D0
:10087000009709F4B5CF0E94110BB2CFCE010196BB
:100880000E944A03E8CF8AE992E00E944A03EECF31
:1008900080919A0290919B02C12CD12C76010097F5
:1008A00019F00E94EB076B018601C6016BE070E056
:1008B0000E94250A70934D0160934C018BE291E0F8
:1008C0000E9415030D2C000CEE08FF08F7FE6DC00A
:1008D0006DE281EF91E00E94720122273327A90186
:1008E0002C193D094E095F0919A2CE0181967C01A0
:1008F0009AE0892E912CA12CB12CCA01B901A50135
:1009000094010E94390A605DF70162937F0121150D
:1009100031054105510589F7E114F10419F0C701CA
:100920000E94150386E391E00E9415038AE391E09B
:100930000E94150380910001882309F451C0109290
:10094000000110934B0100934A0160914C0170919A
:100950004D01072E000C880B990B0E94290823E3F8
:1009600033E343E250E40E9488086B017C0120E0FD
:1009700030E0A9010E94200A20E030E040E05FE37F
:1009800087FD60C0C701B6010E947E090E94EA0986
:1009900070934901609348018FEF90E0861B970B9D
:1009A000909347018093460127C0A701960119A2A1
:1009B000CE0181967C018AE0882E912CA12CB12C4D
:1009C000CA01B901A50194010E94390A605DF701CD
:1009D00062937F01211531054105510589F79CCFAF
:1009E00080914A0190914B01081719070CF4ADCF83
:1009F000801791070CF4A9CF70E060E089E00E94B5
:100A00002B0260914801709149018AE00E942B02FB
:100A100060914601709147018BE00E942B02A396E2
:100A20000FB6F894DEBF0FBECDBFDF91CF911F91FF
:100A30000F91FF90EF90DF90CF90BF90AF909F907D
:100A40008F900895C701B6010E947D099FCF1F9224
:100A50000F920FB60F9211242F933F934F935F93F2
:100A60006F937F938F939F93AF93BF93EF93FF9376
:100A700081EF91E00E945001FF91EF91BF91AF9102
:100A80009F918F917F916F915F914F913F912F91A6
:100A90000F900FBE0F901F9018951F920F920FB6D8
:100AA0000F9211242F938F939F93EF93FF93E091D5
:100AB0000102F09102028081E0910702F0910802A8
:100AC00082FD1BC0908180910A028F5F8F732091FD
:100AD0000B02821741F0E0910A02F0E0EF50FE4F66
:100AE000958F80930A02FF91EF919F918F912F91A3
:100AF0000F900FBE0F901F9018958081F4CF1F921A
:100B00000F920FB60F9211242F933F938F939F93C1
:100B1000AF93BF938091E3019091E401A091E5012F
:100B2000B091E6013091E20123E0230F2D3758F513
:100B30000196A11DB11D2093E2018093E3019093E2
:100B4000E401A093E501B093E6018091DE0190916C
:100B5000DF01A091E001B091E1010196A11DB11D5D
:100B60008093DE019093DF01A093E001B093E10157
:100B7000BF91AF919F918F913F912F910F900FBE99
:100B80000F901F90189526E8230F0296A11DB11D06
:100B9000D2CF1F920F920FB60F9211242F933F9333
:100BA0004F935F936F937F938F939F93AF93BF9375
:100BB000EF93FF938091B900887F803609F44AC093
:100BC000F0F5883209F4A7C018F5803109F49BC00C
:100BD000B8F4882309F4F9C0883009F494C0FF916F
:100BE000EF91BF91AF919F918F917F916F915F91A5
:100BF0004F913F912F910F900FBE0F901F9018951E
:100C0000883109F488C0803251F78093B70114C04D
:100C1000803409F49DC040F48033B9F38833F9F689
:100C20008093B70185ECB0C0803509F485C0883564
:100C300009F496C0883499F60E947D03D0CF883994
:100C400009F48CC038F5883729F050F4883611F053
:100C5000803729F683E08093B8011092B60157C01F
:100C6000883809F47BC0803919F0803809F0B7CF93
:100C70008091B601803208F071C0E091B60181E048
:100C80008E0F8093B6018091BB00F0E0EA56FE4FD4
:100C900080833DC0803B39F0E0F4803A09F479C0AC
:100CA000883A09F09CCF84E08093B80110929501B6
:100CB00010929401E091E901F091EA010995809187
:100CC000940181110FC081E080939401109274010E
:100CD00009C0803C09F4A6CF883C09F4A3CF883B27
:100CE00009F07DCFE091950181E08E0F8093950111
:100CF000F0E0EC58FE4F80818093BB00909195010D
:100D00008091940129C08091DD018093BB0085EC26
:100D10008093BC0064CF9091DC018091DB01981737
:100D200058F5E091DC0181E08E0F8093DC01F0E06A
:100D3000E554FE4F8081E9CFE091DC0181E08E0F28
:100D40008093DC018091BB00F0E0E554FE4F80838E
:100D50009091DC018091DB019817C8F285E8D8CF2B
:100D6000E091DC0181E08E0F8093DC018091BB007B
:100D7000F0E0E554FE4F80838091BA0181115CCF91
:100D800081E08093B90184EA8093BC001092B8019D
:100D900026CF85EC8093BC001092B8018091B601FB
:100DA000803230F4E091B601F0E0EA56FE4F108256
:100DB0006091B60170E0E091E701F091E80186E909
:100DC00091E009951092B6010ACF1092B70134CF85
:100DD000E1EFF1E01382128288EE93E0A0E0B0E050
:100DE00084839583A683B7832BE031E0318320830E
:100DF00025EC30E03587248724EC30E037872687E0
:100E000020EC30E0318B208B21EC30E0338B228BD7
:100E100022EC30E0358B248B26EC30E0378B268BB0
:100E2000118E128E138E148EEEE8F2E0138212826F
:100E300084839583A683B7838DE191E0918380833A
:100E4000EAE9F2E011821082138212821582148282
:100E500050E040E06CE371E0CF010C945C037894C7
:100E600084B5826084BD84B5816084BD85B58260AF
:100E700085BD85B5816085BD80916E008160809360
:100E80006E001092810080918100826080938100C9
:100E900080918100816080938100809180008160D9
:100EA000809380008091B10084608093B100809134
:100EB000B00081608093B00080917A00846080935C
:100EC0007A0080917A00826080937A0080917A0023
:100ED000816080937A0080917A00806880937A00A4
:100EE0001092C100E0910102F091020282E0808341
:100EF000E091FD01F091FE011082E091FF01F0917F
:100F000000028FEC808310920902E0910502F091BB
:100F1000060286E08083E0910302F0910402808162
:100F200080618083E0910302F091040280818860F7
:100F30008083E0910302F0910402808180688083C5
:100F4000E0910302F091040280818F7D80838DE324
:100F500091E00E9415038AE391E00E94150310922C
:100F6000EE011092ED011092EC011092EB010E9443
:100F7000AE0287EA90E09093EA018093E90188EA63
:100F800090E09093E8018093E7018EE18093BA00AE
:100F900084ED93E09093F0018093EF0189E00E944B
:100FA00088008AE00E9488008BE00E948800C0E0F0
:100FB000D0E02097F1F30E943C018823D1F30E94F6
:100FC0000000F7CF80919A0290919B02009711F058
:100FD0000C94110B08951F93FC0199278827BC01DD
:100FE000E89411911032E9F3193010F01E30C8F373
:100FF0001B3251F01D3249F4689406C00E94120859
:10100000610F711D811D911D119110531A30B0F3A4
:101010003EF490958095709561957F4F8F4F9F4FCF
:101020001F910895592F482F372F262F660F771FAE
:10103000881F991F660F771F881F991F620F731FE4
:10104000841F951F660F771F881F991F0895E894C6
:1010500009C097FB3EF490958095709561957F4F00
:101060008F4F9F4F9923A9F0F92F96E9BB279395AE
:10107000F695879577956795B795F111F8CFFAF4BE
:10108000BB0F11F460FF1BC06F5F7F4F8F4F9F4FEF
:1010900016C0882311F096E911C0772321F09EE84D
:1010A000872F762F05C0662371F096E8862F70E0B3
:1010B00060E02AF09A95660F771F881FDAF7880F8D
:1010C0009695879597F90895990F0008550FAA0BE3
:1010D000E0E8FEEF16161706E807F907C0F012164B
:1010E0001306E407F50798F0621B730B840B950B4E
:1010F00039F40A2661F0232B242B252B21F40895A3
:101100000A2609F4A140A6958FEF811D811D08953F
:101110000E949B080C940C090E94FE0838F00E9463
:10112000050920F0952311F00C94F5080C94FB08A8
:1011300011240C9440090E941D0970F3959FC1F37E
:10114000950F50E0551F629FF001729FBB27F00D75
:10115000B11D639FAA27F00DB11DAA1F649F6627CA
:10116000B00DA11D661F829F2227B00DA11D621F19
:10117000739FB00DA11D621F839FA00D611D221FD3
:10118000749F3327A00D611D231F849F600D211DB7
:10119000822F762F6A2F11249F5750409AF0F1F03A
:1011A00088234AF0EE0FFF1FBB1F661F771F881FA3
:1011B00091505040A9F79E3F510580F00C94F508DE
:1011C0000C9440095F3FE4F3983ED4F386957795FD
:1011D0006795B795F795E7959F5FC1F7FE2B880F49
:1011E000911D9695879597F9089597F99F6780E8DF
:1011F00070E060E008959FEF80EC089500240A9469
:101200001616170618060906089500240A941216E1
:101210001306140605060895092E0394000C11F414
:10122000882352F0BB0F40F4BF2B11F460FF04C0C1
:101230006F5F7F4F8F4F9F4F089557FD9058440F1A
:10124000551F59F05F3F71F04795880F97FB991F25
:1012500061F09F3F79F087950895121613061406E2
:10126000551FF2CF4695F1DF08C01616170618066F
:10127000991FF1CF86957105610508940895E8944A
:10128000BB2766277727CB0197F908952F923F92C6
:101290004F925F926F927F928F929F92AF92BF9286
:1012A000CF92DF92EF92FF920F931F93CF93DF9332
:1012B000CDB7DEB7CA1BDB0B0FB6F894DEBF0FBE8F
:1012C000CDBF09942A88398848885F846E847D84DC
:1012D0008C849B84AA84B984C884DF80EE80FD80DE
:1012E0000C811B81AA81B981CE0FD11D0FB6F89454
:1012F000DEBF0FBECDBFED0108955058BB27AA2712
:101300000E9495090C940C090E94FE0838F00E9476
:10131000050920F039F49F3F19F426F40C94FB08DA
:101320000EF4E095E7FB0C94F508E92F0E941D09E7
:1013300058F3BA17620773078407950720F079F40A
:10134000A6F50C943F090EF4E0950B2EBA2FA02DB4
:101350000B01B90190010C01CA01A0011124FF2762
:10136000591B99F0593F50F4503E68F11A16F0405D
:10137000A22F232F342F4427585FF3CF469537955C
:101380002795A795F0405395C9F77EF41F16BA0B21
:10139000620B730B840BBAF09150A1F0FF0FBB1FCF
:1013A000661F771F881FC2F70EC0BA0F621F731F18
:1013B000841F48F4879577956795B795F7959E3F75
:1013C00008F0B0CF9395880F08F09927EE0F979506
:1013D000879508950E94F1096894B1110C94400911
:1013E00008950E94250988F09F5798F0B92F9927F2
:1013F000B751B0F0E1F0660F771F881F991F1AF000
:10140000BA95C9F714C0B13091F00E943F09B1E01C
:1014100008950C943F09672F782F8827B85F39F01B
:10142000B93FCCF3869577956795B395D9F73EF498
:1014300090958095709561957F4F8F4F9F4F089540
:101440000E94640808F48FEF089597FB072E16F4A6
:10145000009407D077FD09D00E945B0A07FC05D0F5
:101460003EF4909581959F4F0895709561957F4FBB
:101470000895A1E21A2EAA1BBB1BFD010DC0AA1FD5
:10148000BB1FEE1FFF1FA217B307E407F50720F0ED
:10149000A21BB30BE40BF50B661F771F881F991F68
:1014A0001A9469F760957095809590959B01AC01B1
:1014B000BD01CF010895AA1BBB1B51E107C0AA1FA4
:1014C000BB1FA617B70710F0A61BB70B881F991FE5
:1014D0005A95A9F780959095BC01CD010895EE0F1E
:1014E000FF1F0590F491E02D09940F931F93CF9364
:1014F000DF938230910510F482E090E0E091A20247
:10150000F091A30230E020E0B0E0A0E0309799F441
:101510002115310509F44AC0281B390B2430310547
:10152000D8F58A819B816115710589F1FB0193834F
:101530008283FE0111C040815181028113814817CD
:101540005907E0F04817590799F4109761F012967F
:101550000C93129713961C933296CF01DF91CF9183
:101560001F910F9108950093A2021093A302F4CF4C
:101570002115310551F04217530738F0A901DB015D
:101580009A01BD01DF01F801C1CFEF01F9CF9093BE
:10159000A3028093A202CDCFFE01E20FF31F81933D
:1015A00091932250310939832883D7CF2091A0020B
:1015B0003091A102232B41F42091030130910401C9
:1015C0003093A1022093A0022091010130910201E9
:1015D0002115310541F42DB73EB7409105015091D9
:1015E0000601241B350BE091A002F091A102E21745
:1015F000F307A0F42E1B3F0B2817390778F0AC0136
:101600004E5F5F4F2417350748F04E0F5F1F509312
:10161000A1024093A002819391939FCFF0E0E0E07C
:101620009CCFCF93DF930097E9F0FC0132971382B0
:101630001282A091A202B091A302ED0130E020E05D
:101640001097A1F420813181820F931F2091A00275
:101650003091A1022817390709F061C0F093A10267
:10166000E093A002DF91CF910895EA01CE17DF0742
:10167000E8F54A815B819E0141155105B1F7E90109
:10168000FB83EA8349915991C40FD51FEC17FD07DD
:1016900061F4808191810296840F951FE9019983FD
:1016A0008883828193819B838A83F0E0E0E01296B5
:1016B0008D919C9113970097B9F52D913C911197BD
:1016C000CD010296820F931F2091A0023091A102BA
:1016D0002817390739F6309751F51092A302109266
:1016E000A202B093A102A093A002BCCFD383C28375
:1016F00040815181840F951FC817D90761F44E5F4F
:101700005F4F88819981480F591F518340838A8197
:101710009B81938382832115310509F0B0CFF0932B
:10172000A302E093A2029ECFFD01DC01C0CF138291
:101730001282D7CFB0E0A0E0E0EAFBE00C944809C9
:101740008C01009751F4CB010E94750A8C01C801ED
:10175000CDB7DEB7E0E10C946409FC01E60FF71F9A
:101760009C0122503109E217F30708F49DC0D9010A
:10177000CD91DC911197C617D70798F0C530D105E8
:1017800030F3CE0104978617970708F3C61BD70BD3
:101790002297C193D1936D937C93CF010E94110B3B
:1017A000D6CF5B01AC1ABD0A4C018C0E9D1EA091D8
:1017B000A202B091A302512C412CF12CE12C1097E4
:1017C00031F58091A0029091A1028815990509F048
:1017D0005CC04616570608F058C0809101019091F0
:1017E0000201009741F48DB79EB7409105015091D9
:1017F0000601841B950BE817F90708F055C0F09314
:10180000A102E093A002F90171836083A0CF8D91C2
:101810009C91119712966C90129713967C90139747
:10182000A815B90559F56C0142E0C40ED11CCA14C3
:10183000DB0420F1AC014A195B09DA011296159715
:1018400080F06282738251834083D9016D937C93CF
:10185000E114F10471F0D7011396FC93EE93129703
:1018600076CF22968C0F9D1FF90191838083F3011F
:10187000EFCFF093A302E093A20269CF4816590676
:1018800008F42C017D01D3019ACFCB010E94750A87
:101890007C01009749F0AE01B8010E94570CC801C5
:1018A0000E94110B870153CF10E000E050CFFB01E5
:1018B000DC0102C001900D9241505040D8F70895CC
:1018C000FB01DC0101900D920020E1F7089510E08A
:1018D000CDE5D0E004C0FE010E946F0A2196CE350E
:0818E000D107C9F7F894FFCF0E
:1018E800010000A4028000000000007201D200FF85
:1018F80000BF0130010E012201000000000103F6C3
:10190800021203CC02EF02DC02CD02446973746157
:101918006E63653A200020636D000D0A00536C6108
:061928007665203200008C
:00000001FF
