:100000000C9462000C948A000C948A000C948A0070
:100010000C948A000C948A000C948A000C948A0038
:100020000C948A000C948A000C948A000C948A0028
:100030000C948A000C948A000C948A000C948A0018
:100040000C947A050C948A000C9448050C942205B3
:100050000C948A000C948A000C948A000C948A00F8
:100060000C94C4050C948A000000000024002700B2
:100070002A0000000000250028002B0000000000DE
:1000800023002600290004040404040404040202DA
:100090000202020203030303030301020408102007
:1000A0004080010204081020010204081020000012
:1000B0000008000201000003040700000000000027
:1000C0000000280711241FBECFEFD8E0DEBFCDBF50
:1000D00011E0A0E0B1E0E6E5FBE102C005900D9281
:1000E000AA34B107D9F722E0AAE4B1E001C01D9219
:1000F000A83CB207E1F710E0C2E6D0E004C02197C7
:10010000FE010E94CB0AC136D107C9F70E946107E0
:100110000C94A90D0C94000008950895AF92BF921D
:10012000CF92DF92EF92FF920F931F93CF93DF93C3
:100130006C017B018B01040F151FEB015E01AE18F2
:10014000BF08C017D10759F06991D601ED91FC9114
:100150000190F081E02DC6010995892B79F7C50141
:10016000DF91CF911F910F91FF90EF90DF90CF9093
:10017000BF90AF900895FC01538D448D252F30E042
:10018000842F90E0821B930B541710F0CF960895A4
:1001900001970895FC01918D828D981761F0A28DD1
:1001A000AE0FBF2FB11D5D968C91928D9F5F9F7397
:1001B000928F90E008958FEF9FEF0895FC01918D4D
:1001C000828D981731F0828DE80FF11D858D90E0BA
:1001D00008958FEF9FEF0895FC01918D228D892F57
:1001E00090E0805C9F4F821B91098F73992708953F
:1001F0008FE192E00E94EC0021E0892B09F420E0DD
:10020000822F089580E090E0892B29F00E94F80069
:1002100081110C9400000895FC01A48DA80FB92F42
:10022000B11DA35ABF4F2C91848D90E001968F731E
:100230009927848FA689B7892C93A089B1898C913D
:10024000837080648C93938D848D981306C002888C
:10025000F389E02D80818F7D80830895EF92FF9256
:100260000F931F93CF93DF93EC0181E0888F9B8DD9
:100270008C8D98131AC0E889F989808185FF15C093
:100280009FB7F894EE89FF896083E889F9898081B6
:100290008370806480839FBF81E090E0DF91CF9185
:1002A0001F910F91FF90EF900895F62E0B8D10E0A7
:1002B0000F5F1F4F0F731127E02E8C8D8E110CC016
:1002C0000FB607FCFACFE889F989808185FFF5CF61
:1002D000CE010E940C01F1CFEB8DEC0FFD2FF11D33
:1002E000E35AFF4FF0829FB7F8940B8FEA89FB899E
:1002F00080818062CFCFCF93DF93EC01888D8823FC
:10030000B9F0AA89BB89E889F9898C9185FD03C078
:10031000808186FD0DC00FB607FCF7CF8C9185FF5D
:10032000F2CF808185FFEDCFCE010E940C01E9CF95
:10033000DF91CF910895833081F028F4813099F0D6
:100340008230A9F008958730A9F08830C9F0843050
:10035000B1F4809180008F7D03C0809180008F7701
:1003600080938000089584B58F7784BD089584B507
:100370008F7DFBCF8091B0008F778093B000089580
:100380008091B0008F7DF9CFCF93DF93E9EBF0E060
:100390008491E5EAF0E0D491E1E9F0E0C491CC2366
:1003A000A1F081110E949B01EC2FF0E0EE0FFF1FE6
:1003B000E458FF4FA591B491EC91ED2381E090E0DA
:1003C00009F480E0DF91CF91089580E090E0FACFCA
:1003D0001F93CF93DF93282F30E0F901E255FF4FB1
:1003E0008491F901E656FF4FD491F901EA57FF4F86
:1003F000C491CC23A9F0162F81110E949B01EC2FF0
:10040000F0E0EE0FFF1FEE58FF4FA591B4918FB7AC
:10041000F894EC91111108C0D095DE23DC938FBFC6
:10042000DF91CF911F910895DE2BF8CFCF93DF930B
:1004300090E0FC01E656FF4F24918A579F4FFC0144
:1004400084918823D1F090E0880F991FFC01E8592E
:10045000FF4FA591B491FC01EE58FF4FC591D49187
:1004600061110EC09FB7F8948C91E22FE0958E2316
:100470008C932881E223E8839FBFDF91CF91089579
:100480008FB7F894EC91E22BEC938FBFF6CF3FB788
:10049000F8948091B3019091B401A091B501B0910D
:1004A000B60126B5A89B05C02F3F19F00196A11DE6
:1004B000B11D3FBFBA2FA92F982F8827BC01CD01AE
:1004C000620F711D811D911D42E0660F771F881F0D
:1004D000991F4A95D1F708958F929F92AF92BF923C
:1004E000CF92DF92EF92FF924B015C010E94470294
:1004F0006B017C010E9447026C197D098E099F09DE
:10050000683E734081059105A8F321E0821A9108A5
:10051000A108B10888EEC80E83E0D81EE11CF11CCA
:1005200081149104A104B10429F7FF90EF90DF90AA
:10053000CF90BF90AF909F908F90089520918B01A6
:10054000260F3327331F21323105ECF42091F501BA
:10055000FC0190E080E0243069F082E00895A091F1
:100560008B012191AC0145595E4FA40FB52FB11DF0
:100570002C930196861798F380918B01680F6093F6
:100580008B0180E0089581E008951092F50181E0EB
:100590008093F4011092CF0161E082E10E94E801B2
:1005A00061E083E10E94E801E9EBF0E080818E7F69
:1005B000808380818D7F808388E48093B80085E488
:1005C0008093BC000895CF93DF9391E090936A01EC
:1005D0008823B9F0C091B800D091BA008091BC00D6
:1005E0008A7B8093BC0060E082E10E94E80160E0C9
:1005F00083E10E94E8010E94C502D093BA00C09333
:10060000B800DF91CF910895CF92DF92EF92FF92E1
:100610000F931F93CF93DF93D0911E0281E0D132CD
:1006200008F09CC0C0911D020E9447026B017C0132
:100630008091F50181116CC082E08093F50181E029
:100640008093F4018FEF8093F3011092F201D09325
:10065000F101ADEFB1E0E1EDF1E080E0D8138DC044
:100660001092D0018091D001CC0FC82BC093D00143
:100670008091CF01813009F084C01092CF010E9497
:1006800047026B017C018091D0018093BB00809177
:10069000F7019091F801A091F901B091FA01892B2D
:1006A0008A2B8B2BA1F00E9447020091F701109139
:1006B000F8012091F9013091FA016C197D098E0938
:1006C0009F09061717072807390708F442C08091C9
:1006D000BC0083FDD8CF85EC8093BC000E9447020C
:1006E0006B017C018091F501823009F44CC080914E
:1006F000F3018F3F09F469C08091F301803209F45E
:1007000066C08091F301803309F463C084E026C0A1
:100710008091F7019091F801A091F901B091FA014F
:10072000892B8A2B8B2B09F483CF0E9447020091DF
:10073000F7011091F8012091F9013091FA016C193B
:100740007D098E099F09061717072807390708F042
:100750006FCF8091F6010E94E30285E01092FC01C8
:1007600010921E021092FB01DF91CF911F910F9109
:10077000FF90EF90DF90CF9008959D9191938F5FC0
:100780006DCF85EEA9CF8091F7019091F801A091EE
:10079000F901B091FA01892B8A2B8B2B09F4A2CF96
:1007A0000E9447020091F7011091F8012091F90190
:1007B0003091FA016C197D098E099F0906171707F8
:1007C0002807390708F08ECFC4CF80E0C7CF82E07A
:1007D000C5CF83E0C3CF0895E091BC018091BB01F8
:1007E000E81730F4F0E0E65BFE4F808190E008957A
:1007F0008FEF9FEF08959091BC018091BB012FEF87
:100800003FEF981748F4E92FF0E0E65BFE4F2081B8
:1008100030E09F5F9093BC01C90108958091BB01B6
:100820009091BC01891B990B0895CF92DF92EF92B2
:10083000FF920F931F93CF93DF937C01CB018A012B
:100840002091FB01222389F0EB016B01C40ED51E20
:10085000CC15DD0569F06991D701ED91FC9101900E
:10086000F081E02DC7010995F3CF642F0E949E020D
:10087000C801DF91CF911F910F91FF90EF90DF9012
:10088000CF900895CF93DF931F92CDB7DEB76983E2
:100890002091FB012223F9F020911E02203258F012
:1008A00021E030E0FC013383228390E080E00F9070
:1008B000DF91CF9108958091FC01E82FF0E0E350A3
:1008C000FE4F998190838F5F8093FC0180931E027D
:1008D00081E090E0ECCF61E0CE0101960E949E02A3
:1008E000F7CF90E080E00895FB0101900020E9F748
:1008F0003197AF01461B570BDC01ED91FC91028053
:10090000F381E02D09948F929F92AF92BF920F9343
:100910001F93CF93DF93CDB7DEB7A1970FB6F894AF
:10092000DEBF0FBECDBF19A2423008F44AE08E01EF
:100930000F5D1F4F842E912CB12CA12CA501940189
:100940000E947809E62FB901CA01EA3004F5E05D9A
:10095000D801EE938D01232B242B252B79F790E0E2
:1009600080E0109729F0BD018FE192E00E947404AD
:10097000A1960FB6F894DEBF0FBECDBFDF91CF9129
:100980001F910F91BF90AF909F908F900895E95C59
:10099000DFCFCF92DF92EF92FF92CF93DF936B0185
:1009A0007C016DE28FE192E00E942E01EC0166274E
:1009B0007727CB016C197D098E099F094AE00E94B7
:1009C00083048C0F9D1FDF91CF91FF90EF90DF90FC
:1009D000CF90089585ED8093BC008091F7019091B0
:1009E000F801A091F901B091FA010796A11DB11D7E
:1009F00023E0B695A795979587952A95D1F72091ED
:100A0000BC0024FD03C01092F50108954091F70148
:100A10005091F8016091F9017091FA01452B462B34
:100A2000472B69F30097A105B10541F025E32A950D
:100A3000F1F700000197A109B109E1CF8091F6011A
:100A40000C94E3021F920F920FB60F9211242F9372
:100A50003F934F935F936F937F938F939F93AF9346
:100A6000BF93EF93FF938FE192E00E940C01FF91FF
:100A7000EF91BF91AF919F918F917F916F915F9116
:100A80004F913F912F910F900FBE0F901F9018958F
:100A90001F920F920FB60F9211242F938F939F9353
:100AA000EF93FF93E0912F02F09130028081E0916B
:100AB0003502F091360282FD1BC090818091380290
:100AC0008F5F8F7320913902821741F0E0913802D5
:100AD000F0E0E15EFD4F958F80933802FF91EF913A
:100AE0009F918F912F910F900FBE0F901F9018958F
:100AF0008081F4CF1F920F920FB60F9211242F9383
:100B00003F938F939F93AF93BF938091AF01909149
:100B1000B001A091B101B091B2013091AE0123E0DA
:100B2000230F2D3758F50196A11DB11D2093AE015D
:100B30008093AF019093B001A093B101B093B20143
:100B40008091B3019091B401A091B501B091B6012B
:100B50000196A11DB11D8093B3019093B401A093A0
:100B6000B501B093B601BF91AF919F918F913F9125
:100B70002F910F900FBE0F901F90189526E8230F0E
:100B80000296A11DB11DD2CF1F920F920FB60F92E8
:100B900011242F933F934F935F936F937F938F9382
:100BA0009F93AF93BF93EF93FF938091B900887F9A
:100BB000803609F44AC0F0F5883209F4A7C018F568
:100BC000803109F49BC0B8F4882309F4F9C0883057
:100BD00009F494C0FF91EF91BF91AF919F918F91D4
:100BE0007F916F915F914F913F912F910F900FBE29
:100BF0000F901F901895883109F488C0803251F702
:100C00008093F30114C0803409F49DC040F4803314
:100C1000B9F38833F9F68093F30185ECB0C08035E1
:100C200009F485C0883509F496C0883499F60E9485
:100C3000EA04D0CF883909F48CC038F5883729F018
:100C400050F4883611F0803729F683E08093F5015F
:100C50001092AD0157C0883809F47BC0803919F073
:100C6000803809F0B7CF8091AD01803208F071C0B3
:100C7000E091AD0181E08E0F8093AD018091BB00CA
:100C8000F0E0E357FE4F80833DC0803B39F0E0F455
:100C9000803A09F479C0883A09F09CCF84E08093C7
:100CA000F50110928C0110928B01E091B901F09145
:100CB000BA01099580918B0181110FC081E0809369
:100CC0008B0110926B0109C0803C09F4A6CF883CCF
:100CD00009F4A3CF883B09F07DCFE0918C0181E03E
:100CE0008E0F80938C01F0E0E559FE4F8081809358
:100CF000BB0090918C0180918B0129C08091D00123
:100D00008093BB0085EC8093BC0064CF9091F2018E
:100D10008091F101981758F5E091F20181E08E0F72
:100D20008093F201F0E0EF52FE4F8081E9CFE09135
:100D3000F20181E08E0F8093F2018091BB00F0E020
:100D4000EF52FE4F80839091F2018091F10198174C
:100D5000C8F285E8D8CFE091F20181E08E0F809350
:100D6000F2018091BB00F0E0EF52FE4F8083809152
:100D7000F40181115CCF81E08093CF0184EA8093FC
:100D8000BC001092F50126CF85EC8093BC00109238
:100D9000F5018091AD01803230F4E091AD01F0E0D9
:100DA000E357FE4F10826091AD0170E0E091B70112
:100DB000F091B8018DE891E009951092AD010ACF4C
:100DC0001092F30134CFCF92DF92EF92FF920F9304
:100DD0001F93E82FF92F05C001501109210931098E
:100DE00061F1908196239417B9F305C00150110960
:100DF0002109310911F1908196239413F7CFC12C69
:100E0000D12CE12CF12C0AC08FEFC81AD80AE80ABD
:100E1000F80A0C151D052E053F0579F08081862303
:100E2000841791F36C2D7D2D8E2D9F2D1F910F9189
:100E3000FF90EF90DF90CF90089560E070E080E049
:100E400090E01F910F91FF90EF90DF90CF90089569
:100E5000EFE1F2E01382128288EE93E0A0E0B0E0CE
:100E600084839583A683B78324E031E03183208394
:100E700025EC30E03587248724EC30E0378726875F
:100E800020EC30E0318B208B21EC30E0338B228B57
:100E900022EC30E0358B248B26EC30E0378B268B30
:100EA000118E128E138E148EECEBF2E013821282EE
:100EB00084839583A683B78386E191E091838083C1
:100EC0000895789484B5826084BD84B5816084BDC2
:100ED00085B5826085BD85B5816085BD80916E00D8
:100EE000816080936E001092810080918100826009
:100EF0008093810080918100816080938100809146
:100F000080008160809380008091B1008460809334
:100F1000B1008091B00081608093B00080917A0030
:100F2000846080937A0080917A00826080937A0056
:100F300080917A00816080937A0080917A00806845
:100F400080937A001092C100E0912F02F09130025C
:100F500082E08083E0912B02F0912C021082E091DC
:100F60002D02F0912E028FEC808310923702E091D7
:100F70003302F091340286E08083E0913102F091F7
:100F80003202808180618083E0913102F0913202EF
:100F9000808188608083E0913102F091320280810B
:100FA00080688083E0913102F091320280818F7DF0
:100FB00080831092BC011092BB011092FC01109230
:100FC0001E020E94C5028CE890E09093BA018093C3
:100FD000B9018DE890E09093B8018093B70161E08A
:100FE0008DE00E94160260E08CE00E9416023BE950
:100FF000832E912CAA24A394B12C5DEB252E51E0D5
:10100000352E60E0C62E60E0D62E1092CA011092F6
:10101000CB011092CC011092CD011092CE0161E073
:101020008BE00E94160260E08BE00E94E80164E120
:1010300070E080E090E00E946C0261E08BE00E9432
:10104000E801C4010197F1F760E08BE00E9416020D
:10105000C1E1D7E20E94C401892B09F0D3C02197D6
:10106000C9F76091C6017091C7018091C801909144
:10107000C9010E949A092B0164E271E08FE192E0BC
:101080000E947404B201550C880B990B97FF26C17E
:101090000E94C90462E371E08FE192E00E9474044F
:1010A00065E371E08FE192E00E94740481E0809337
:1010B000FB018AE080931D021092FC0110921E0237
:1010C000642D8CEB92E00E9442040E94040360E0D5
:1010D0008DE00E94E80183E090E00197F1F761E084
:1010E0008DE00E94E80183E290E00197F1F760E073
:1010F0008DE00E94E801E6EAF0E06491E2E9F0E0C8
:101100008491E82FF0E0EE0FFF1FE458FF4F859128
:10111000949100E412E42FE030E0462F0E94E306B1
:10112000611571058105910529F06F5F7F4F8F4F24
:101130009F4F9F700E94D20926E933E44BE05DE3A4
:101140000E94360A20E030E040E05FE30E94360A69
:101150000E949A092B013C0168E371E08FE192E063
:101160000E94740477FEBEC0C301B2010E94C9048C
:1011700063E471E08FE192E00E94740465E371E042
:101180008FE192E00E94740465E371E08FE192E0E8
:101190000E9474047F926F925F924F9287E491E075
:1011A0009F938F933F922F920E94D10A81E0809368
:1011B000FB01FFE0F0931D021092FC0110921E0251
:1011C0006DEB71E08CEB92E00E9474040E940403CA
:1011D0006CE271E080E090E00E946C028DB79EB7F7
:1011E00008960FB6F8949EBF0FBE8DBFC114D104F0
:1011F00009F40BCF0E94F800882309F406CF0E945F
:10120000000003CFC1E1D7E20E94C401019719F4A5
:101210002197D1F726CF08E210E0C7E0D0E021E126
:10122000E22E27E2F22E0E94C401892B29F421E04C
:10123000E21AF108C1F715CF0E9447022B013C01C9
:1012400091E1E92E97E2F92E0E94C401019729F459
:1012500081E0E81AF108C1F704CF0E94470264193F
:10126000750986099709693271058105910568F04C
:10127000ED2FF0E0EE53FE4F2085C5010C2E01C08E
:10128000880F0A94EAF7822B8087C11125C0DF5F9F
:10129000C7E00150110909F0C2CF6091CA0170E0A6
:1012A00090E080E00E94D0096093C2017093C30176
:1012B0008093C4019093C5016091CC0170E090E0EF
:1012C00080E00E94D0096093C6017093C7018093AB
:1012D000C8019093C901C5CEC150DBCF4AE00E943E
:1012E0008304D8CE4AE0C301B2010E94830440CFF8
:1012F000A1E21A2EAA1BBB1BFD010DC0AA1FBB1F1A
:10130000EE1FFF1FA217B307E407F50720F0A21B8B
:10131000B30BE40BF50B661F771F881F991F1A94F8
:1013200069F760957095809590959B01AC01BD0122
:10133000CF0108950E94A1096894B1110C94300A5C
:1013400008950E94150A88F09F5798F0B92F9927A1
:10135000B751B0F0E1F0660F771F881F991F1AF0A0
:10136000BA95C9F714C0B13091F00E942F0AB1E0CC
:1013700008950C942F0A672F782F8827B85F39F0CB
:10138000B93FCCF3869577956795B395D9F73EF439
:1013900090958095709561957F4F8F4F9F4F0895E1
:1013A000E89409C097FB3EF49095809570956195FF
:1013B0007F4F8F4F9F4F9923A9F0F92F96E9BB27B5
:1013C0009395F695879577956795B795F111F8CF31
:1013D000FAF4BB0F11F460FF1BC06F5F7F4F8F4F9C
:1013E0009F4F16C0882311F096E911C0772321F092
:1013F0009EE8872F762F05C0662371F096E8862F2A
:1014000070E060E02AF09A95660F771F881FDAF780
:10141000880F9695879597F9089557FD9058440F32
:10142000551F59F05F3F71F04795880F97FB991F43
:1014300061F09F3F79F08795089512161306140600
:10144000551FF2CF4695F1DF08C01616170618068D
:10145000991FF1CF86957105610508940895E89468
:10146000BB2766277727CB0197F908950E94490A81
:101470000C94BA0A0E94AC0A38F00E94B30A20F019
:10148000952311F00C94A30A0C94A90A11240C942E
:10149000300A0E940D0A70F3959FC1F3950F50E03A
:1014A000551F629FF001729FBB27F00DB11D639F16
:1014B000AA27F00DB11DAA1F649F6627B00DA11DBC
:1014C000661F829F2227B00DA11D621F739FB00D62
:1014D000A11D621F839FA00D611D221F749F3327D2
:1014E000A00D611D231F849F600D211D822F762F6B
:1014F0006A2F11249F5750409AF0F1F088234AF048
:10150000EE0FFF1FBB1F661F771F881F91505040B3
:10151000A9F79E3F510580F00C94A30A0C94300A61
:101520005F3FE4F3983ED4F3869577956795B7953A
:10153000F795E7959F5FC1F7FE2B880F911D969554
:10154000879597F9089597F99F6780E870E060E0C4
:1015500008959FEF80EC089500240A94161617064C
:1015600018060906089500240A9412161306140694
:1015700005060895092E0394000C11F4882352F0F7
:10158000BB0F40F4BF2B11F460FF04C06F5F7F4FAF
:101590008F4F9F4F0895EE0FFF1F0590F491E02DA0
:1015A0000994AEE0B0E0E7EDFAE00C94800D0D890F
:1015B0001E8986E08C831A8309838FEF9FE79E83C1
:1015C0008D83AE01475E5F4F6F89788DCE010196A6
:1015D0000E94F40A2F813885020F131FF801108230
:1015E0002E96E4E00C949C0DABE0B0E0EAEFFAE05C
:1015F0000C94720D7C013B018A01FC01178216825A
:10160000838181FFC8C1CE0101965C01F7019381FE
:10161000F30193FD859193FF81913F01882309F4A4
:1016200053C1853239F493FD859193FF81913F0138
:10163000853229F4B70190E00E94E40CE7CF912CA9
:10164000212C312CFFE1F31538F08B3211F190F49D
:10165000803209F1833229F137FC3CC020ED280F9C
:101660002A3050F536FE20C08AE0989E200D1124C5
:10167000922E06C08D3291F0803371F7689430F865
:10168000F30193FD859193FF81913F018111DACFA1
:1016900021C0689431F8689432F8F2CF689433F836
:1016A000EFCF689434F8ECCFEAE02E9E200D1124A1
:1016B000222E689435F8E4CF8E3229F436FC04C12A
:1016C000689436F8DDCF8C3619F4689437F8D8CFA3
:1016D0008836B1F2982F9F7D95549330E0F0833691
:1016E000A1F18337C1F1833509F063C02801F2E02D
:1016F0004F0E511CF801C080D180692D70E036FC7E
:1017000002C06FEF7FEFC6010E94CE0C4C016894BF
:1017100037F882010AC00C5F1F4FFFE3F98388246A
:101720008394912C6501E89437F833FE2DC0522C38
:101730008114910471F5552009F468CFB70180E256
:1017400090E00E94E40C5A94F6CFF80180818983DE
:101750000E5F1F4FE4CF2801F2E04F0E511CF8013D
:10176000C080D180692D70E036FC02C06FEF7FEF42
:10177000C6010E94D90C4C018201D5CFB70180E28D
:1017800090E00E94E40C2A942814190409F0B0F7A0
:10179000CECFF60137FC859137FE81916F01B701FD
:1017A00090E00E94E40C51105A94F1E08F1A9108D5
:1017B000BFCF843619F0893609F077C0F80137FEBB
:1017C0006BC060817181828193810C5F1F4FF32D0B
:1017D000FF763F2E97FF09C0909580957095619593
:1017E0007F4F8F4F9F4F689437F82AE030E0A50174
:1017F0000E94140DC82ECA188C2C432C36FE0CC027
:10180000E89440F8C91440F434FE05C032FC03C02B
:10181000F32DFE7E4F2E892C44FE95C0FE01EC0D6B
:10182000F11D8081803309F087C0242D297E422E4E
:10183000842D8870582E43FC95C040FE8FC09C2C90
:10184000821418F42C0C922C981844FE91C0B70105
:1018500080E390E00E94E40C42FE09C088E790E03B
:1018600041FE02C088E590E0B7010E94E40CC91473
:1018700008F48AC0CA94D12C9FEFC91AD90ACA0C9D
:10188000DB1CF60182916F01B70190E00E94E40C2D
:10189000AC14BD04B1F74FCF60817181072E000CED
:1018A000880B990B0E5F1F4F92CFD32CE894D4F87E
:1018B0002AE030E0853739F1232D297FD22E8F366B
:1018C00001F148F48835A9F0F701868197812B96BC
:1018D000E2E10C948E0D803749F08837A9F7D4FEE9
:1018E00002C06894D2F820E130E00DC06894D4F8CA
:1018F000F6CF34FE03C0822F8660D82E20E132E07E
:1019000002C028E030E0F801D7FE0FC0608171818D
:10191000828193810C5F1F4FA5010E94140DC82E78
:10192000CA183D2CE89437F867CF6081718190E048
:1019300080E00E5F1F4FF0CF42FC02C0839478CF4F
:101940008394839475CF842D867809F471CFF6CF74
:10195000B70180E290E00E94E40C83948214C0F30B
:10196000512C73CF522C5818821408F46ECFF8CF34
:10197000842D867809F47BCF8BE241FE80E247FC20
:101980008DE2B70190E071CFB70180E390E00E9453
:10199000E40C9A946CCF8FEF9FEF99CFFC010590E8
:1019A000615070400110D8F7809590958E0F9F1F61
:1019B0000895FC016150704001900110D8F78095A6
:1019C00090958E0F9F1F08950F931F93CF93DF93D2
:1019D000182F092FEB018B8181FD09C01FEF0FEF3D
:1019E000812F902FDF91CF911F910F91089582FF4A
:1019F00014C02E813F818C819D81281739073CF4CA
:101A0000E881F981CF0101969983888310838E81C3
:101A10009F8101969F838E83E3CFE885F985812F8F
:101A20000995892BA1F3DACFFA01AA27283051F1C1
:101A3000203181F1E8946F936E7F6E5F7F4F8F4FFF
:101A40009F4FAF4FB1E03ED0B4E03CD0670F781F5E
:101A5000891F9A1FA11D680F791F8A1F911DA11D43
:101A60006A0F711D811D911DA11D20D009F468947C
:101A70003F912AE0269F11243019305D3193DEF624
:101A8000CF010895462F4770405D4193B3E00FD0DA
:101A9000C9F7F6CF462F4F70405D4A3318F0495DC5
:101AA00031FD4052419302D0A9F7EACFB4E0A695A8
:101AB0009795879577956795BA95C9F700976105CA
:101AC000710508959B01AC010A2E06945795479520
:101AD00037952795BA95C9F7620F731F841F951F15
:101AE000A01D08952F923F924F925F926F927F9226
:101AF0008F929F92AF92BF92CF92DF92EF92FF921E
:101B00000F931F93CF93DF93CDB7DEB7CA1BDB0BC9
:101B10000FB6F894DEBF0FBECDBF09942A8839886E
:101B200048885F846E847D848C849B84AA84B98475
:101B3000C884DF80EE80FD800C811B81AA81B98181
:101B4000CE0FD11D0FB6F894DEBF0FBECDBFED0195
:061B50000895F894FFCF98
:101B5600000000002E018E00BB007B01EC00CA00D5
:101B6600DE0000000000420415047104EB030E04BD
:101B7600FB03EC0354656D70657261747572653AAA
:101B860020002043000D0A0044697374616E63658A
:0A1B96003A200020636D002569006D
:00000001FF
