:100000000C9462000C948A000C948A000C948A0070
:100010000C948A000C948A000C948A000C948A0038
:100020000C948A000C948A000C948A000C94570655
:100030000C948A000C948A000C948A000C948A0018
:100040000C94EE040C948A000C94BC040C9496045A
:100050000C948A000C948A000C948A000C948A00F8
:100060000C9438050C948A0000000000240027003E
:100070002A0000000000250028002B0000000000DE
:1000800023002600290004040404040404040202DA
:100090000202020203030303030301020408102007
:1000A0004080010204081020010204081020000012
:1000B0000008000201000003040700000000000027
:1000C0000000CA0611241FBECFEFD8E0DEBFCDBFAF
:1000D00012E0A0E0B1E0E8E0F1E102C005900D928D
:1000E000A032B107D9F723E0A0E2B2E001C01D922F
:1000F000A837B207E1F710E0C2E6D0E004C02197CC
:10010000FE010E947C08C136D107C9F70E9403078F
:100110000C9482080C9400000895CF93DF93AC01F7
:10012000E091C702F091C8023097F1F09091C602B9
:100130008091C5029817C0F090E0292F30E0261773
:10014000370754F4D901AA5DBD4F240F351FE901CB
:1001500028812C939F5FF1CF1092C6026093C50255
:10016000CB01DF91CF910994DF91CF910895AF92A8
:10017000BF92CF92DF92EF92FF920F931F93CF9394
:10018000DF936C017B018B01040F151FEB015E01F6
:10019000AE18BF08C017D10759F06991D601ED918B
:1001A000FC910190F081E02DC6010995892B79F72A
:1001B000C501DF91CF911F910F91FF90EF90DF90DC
:1001C000CF90BF90AF900895FC01538D448D252FA3
:1001D00030E0842F90E0821B930B541710F0CF96E1
:1001E000089501970895FC01918D828D981761F013
:1001F000A28DAE0FBF2FB11D5D968C91928D9F5F2A
:100200009F73928F90E008958FEF9FEF0895FC0108
:10021000918D828D981731F0828DE80FF11D858DBB
:1002200090E008958FEF9FEF0895FC01918D228D4E
:10023000892F90E0805C9F4F821B91098F739927D3
:1002400008958FEC92E00E94150121E0892B09F4BA
:1002500020E0822F089580E090E0892B29F00E9411
:10026000210181110C9400000895FC01A48DA80FB8
:10027000B92FB11DA35ABF4F2C91848D90E00196E8
:100280008F739927848FA689B7892C93A089B18908
:100290008C91837080648C93938D848D981306C0A9
:1002A0000288F389E02D80818F7D80830895EF920D
:1002B000FF920F931F93CF93DF93EC0181E0888F20
:1002C0009B8D8C8D98131AC0E889F989808185FFF0
:1002D00015C09FB7F894EE89FF896083E889F98992
:1002E00080818370806480839FBF81E090E0DF9194
:1002F000CF911F910F91FF90EF900895F62E0B8DE7
:1003000010E00F5F1F4F0F731127E02E8C8D8E11A1
:100310000CC00FB607FCFACFE889F989808185FF08
:10032000F5CFCE010E943501F1CFEB8DEC0FFD2F03
:10033000F11DE35AFF4FF0829FB7F8940B8FEA89C3
:10034000FB8980818062CFCFCF93DF93EC01888DD2
:100350008823B9F0AA89BB89E889F9898C9185FD40
:1003600003C0808186FD0DC00FB607FCF7CF8C91CE
:1003700085FFF2CF808185FFEDCFCE010E94350150
:10038000E9CFDF91CF910895833081F028F4813057
:1003900099F08230A9F008958730A9F08830C9F02B
:1003A0008430B1F4809180008F7D03C08091800003
:1003B0008F7780938000089584B58F7784BD0895EA
:1003C00084B58F7DFBCF8091B0008F778093B00094
:1003D00008958091B0008F7DF9CFCF93DF93282FC0
:1003E00030E0F901E255FF4F8491F901E656FF4FE5
:1003F000D491F901EA57FF4FC491CC23A1F08111A8
:100400000E94C401EC2FF0E0EE0FFF1FE458FF4FF5
:10041000A591B491EC91ED2381E090E009F480E0A6
:10042000DF91CF91089580E090E0FACF1F93CF93B2
:10043000DF93282F30E0F901E255FF4F8491F90155
:10044000E656FF4FD491F901EA57FF4FC491CC23F0
:10045000A9F0162F81110E94C401EC2FF0E0EE0FDD
:10046000FF1FEE58FF4FA591B4918FB7F894EC9110
:10047000111108C0D095DE23DC938FBFDF91CF919F
:100480001F910895DE2BF8CFCF93DF9390E0FC010E
:10049000E656FF4F24918A579F4FFC018491882391
:1004A000C9F090E0880F991FFC01E859FF4FA59112
:1004B000B491FC01EE58FF4FC591D49161110DC06C
:1004C0009FB7F8948C91209582238C938881282360
:1004D00028839FBFDF91CF910895623051F49FB779
:1004E000F8943C91822F809583238C93E8812E2B66
:1004F000EFCF8FB7F894EC912E2B2C938FBFEACFD0
:1005000020916C02260F3327331F21323105ECF482
:1005100020919002FC0190E080E0243069F082E0BC
:100520000895A0916C022191AC01445B5D4FA40F32
:10053000B52FB11D2C930196861798F380916C020C
:10054000680F60936C0280E0089581E00895109236
:10055000900281E0809392021092910261E082E128
:100560000E94160261E083E10E941602E9EBF0E0CE
:1005700080818E7F808380818D7F808388E48093DB
:10058000B80085E48093BC0008950895E091C60208
:100590008091C502E81730F4F0E0EA5DFD4F8081FC
:1005A00090E008958FEF9FEF08959091C60280919B
:1005B000C5022FEF3FEF981748F4E92FF0E0EA5D0E
:1005C000FD4F208130E09F5F9093C602C9010895DE
:1005D0008091C5029091C602891B990B0895CF9313
:1005E000DF93CB01EA01642F0E948002CE01DF91EC
:1005F000CF910895CF93DF931F92CDB7DEB7698374
:1006000061E0CE0101960E94800281E090E00F90AF
:10061000DF91CF91089590E080E008958627082E1D
:100620008295807F8025092E982F82958F700826CD
:10063000869598278927880F880F880F8025089529
:10064000EF92FF920F931F93CF93DF938091CD0290
:100650008111FCCF6CE18FEF9FEF0E940E032EE023
:10066000209322012AE220932301C1E0D1E06AE134
:10067000E62E61E0F62E0AE111E069910E940E0378
:10068000FE013197E081AE2FB0E054E0B595A7951B
:100690005A95E1F7A053BE4F2C91D7011A962C938F
:1006A0001A97EF70F0E0E053FE4F20811B962C93D9
:1006B000B2E0EB0EF11C0C171D07F9F68095909532
:1006C000FC0124E0F695E7952A95E1F7EF70FF2706
:1006D000E053FE4F208120935601FC01EF70FF276D
:1006E000E053FE4F208120935701FC01EF2FFF279D
:1006F000E295EF70E053FE4F208120935801E92FDF
:10070000FF27EF70FF27E053FE4F80818093590150
:1007100080E48093CE021092CC021092CB02109211
:10072000CA026091C902C1E06C278AE00E941602E9
:10073000C093CD0281E0DF91CF911F910F91FF9087
:10074000EF900895FC0101900020E9F73197AF0187
:10075000481B590BBC018FEC92E00C94B700CF936F
:10076000DF9385ED8093BC0080914802909149020F
:10077000A0914A02B0914B020796A11DB11D23E042
:10078000B695A795979587952A95D1F72091BC00A6
:1007900024FD03C01092900236C04091480250914F
:1007A000490260914A0270914B02452B462B472B20
:1007B00069F30097A105B10541F025E32A95F1F70A
:1007C00000000197A109B109E1CF8091470291E0B2
:1007D000909346028823B9F0C091B800D091BA0036
:1007E0008091BC008A7B8093BC0060E082E10E9423
:1007F000160260E083E10E9416020E94A702D093D5
:10080000BA00C093B800DF91CF9108958F929F9264
:10081000AF92BF92CF92DF92EF92FF92CF93DF938E
:10082000CDB7DEB7A1970FB6F894DEBF0FBECDBF30
:1008300010922102109220029091C5028091C6026E
:10084000981741F08CE693E00E94D5029093210224
:100850008093200284E092E00E94A203C0902002D4
:10086000D09021020D2C000CEE08FF08F7FE43C0CB
:100870006DE28FEC92E00E94570122273327A901F5
:100880002C193D094E095F0919A2CE0181967C0100
:100890009AE0892E912CA12CB12CCA01B901A50195
:1008A00094010E945A08605DF70162937F0121154F
:1008B00031054105510589F7E114F10419F0C7012B
:1008C0000E94A20382E192E00E94A20385E192E0ED
:1008D0000E94A203A1960FB6F894DEBF0FBECDBF53
:1008E000DF91CF91FF90EF90DF90CF90BF90AF90CE
:1008F0009F908F900895A701960119A2CE0181962D
:100900007C018AE0882E912CA12CB12CCA01B9015E
:10091000A50194010E945A08605DF70162937F016E
:10092000211531054105510589F7C6CF1F920F9258
:100930000FB60F9211242F933F934F935F936F93B2
:100940007F938F939F93AF93BF93EF93FF938FEC1E
:1009500092E00E943501FF91EF91BF91AF919F917D
:100960008F917F916F915F914F913F912F910F9058
:100970000FBE0F901F9018951F920F920FB60F92F7
:1009800011242F938F939F93EF93FF93E091DF02B6
:10099000F091E0028081E091E502F091E60282FDB3
:1009A0001BC090818091E8028F5F8F732091E902D4
:1009B000821741F0E091E802F0E0E153FD4F958F9E
:1009C0008093E802FF91EF919F918F912F910F906B
:1009D0000FBE0F901F9018958081F4CF1F920F9239
:1009E0000FB60F9211242F933F938F939F93AF9342
:1009F000BF938091BB029091BC02A091BD02B091C7
:100A0000BE023091BA0223E0230F2D3758F501962C
:100A1000A11DB11D2093BA028093BB029093BC022A
:100A2000A093BD02B093BE028091B6029091B7022E
:100A3000A091B802B091B9020196A11DB11D809399
:100A4000B6029093B702A093B802B093B902BF91D7
:100A5000AF919F918F913F912F910F900FBE0F906B
:100A60001F90189526E8230F0296A11DB11DD2CF25
:100A70001F920F920FB60F9211242F933F934F9313
:100A80005F936F937F938F939F93AF93BF93EF93F6
:100A9000FF938091B900887F803609F44AC0F0F551
:100AA000883209F4A7C018F5803109F49BC0B8F466
:100AB000882309F4F9C0883009F494C0FF91EF91BC
:100AC000BF91AF919F918F917F916F915F914F9166
:100AD0003F912F910F900FBE0F901F901895883166
:100AE00009F488C0803251F780938F0214C080349B
:100AF00009F49DC040F48033B9F38833F9F680934C
:100B00008F0285ECB0C0803509F485C0883509F4C2
:100B100096C0883499F60E94AF03D0CF883909F483
:100B20008CC038F5883729F050F4883611F08037BA
:100B300029F683E08093900210928E0257C0883885
:100B400009F47BC0803919F0803809F0B7CF809163
:100B50008E02803208F071C0E0918E0281E08E0F2B
:100B600080938E028091BB00F0E0E259FD4F8083BC
:100B70003DC0803B39F0E0F4803A09F479C0883A0E
:100B800009F09CCF84E08093900210926D02109245
:100B90006C02E091C102F091C202099580916C0251
:100BA00081110FC081E080936C0210924C0209C049
:100BB000803C09F4A6CF883C09F4A3CF883B09F018
:100BC0007DCFE0916D0281E08E0F80936D02F0E0A9
:100BD000E45BFD4F80818093BB0090916D0280911A
:100BE0006C0229C08091B5028093BB0085EC809394
:100BF000BC0064CF9091B4028091B302981758F56D
:100C0000E091B40281E08E0F8093B402F0E0ED56E3
:100C1000FD4F8081E9CFE091B40281E08E0F809397
:100C2000B4028091BB00F0E0ED56FD4F80839091BF
:100C3000B4028091B3029817C8F285E8D8CFE0914A
:100C4000B40281E08E0F8093B4028091BB00F0E08B
:100C5000ED56FD4F80838091920281115CCF81E03F
:100C60008093910284EA8093BC001092900226CF78
:100C700085EC8093BC001092900280918E028032AD
:100C800030F4E0918E02F0E0E259FD4F1082609165
:100C90008E0270E0E091BF02F091C0028EE692E019
:100CA000099510928E020ACF10928F0234CF1F92B4
:100CB0000F920FB60F9211241F932F933F934F93D0
:100CC0005F936F937F938F939F93AF93BF93CF93D4
:100CD000DF93EF93FF938091CD02882321F18091E0
:100CE000CA0291E0980F9093CA0281111CC0C09172
:100CF000CC02109100018091CE02C81770F1609172
:100D0000C9028AE00E94160260E0812F0E9416024A
:100D10001092CD0280912402909125020196909329
:100D20002502809324028091CA02883010F010922C
:100D3000CA02FF91EF91DF91CF91BF91AF919F9147
:100D40008F917F916F915F914F913F912F911F9163
:100D50000F900FBE0F901F901895EC2FF0E0E65EFD
:100D6000FE4F60812091CB02D1E0D20FD093CB0215
:100D700081E090E001C0880F2A95EAF76823812F6F
:100D80000E941602D630A8F21092CB02CF5FC09319
:100D9000CC02C9CFEFECF2E01382128288EE93E02E
:100DA000A0E0B0E084839583A683B78324EE31E08E
:100DB0003183208325EC30E03587248724EC30E034
:100DC0003787268720EC30E0318B208B21EC30E018
:100DD000338B228B22EC30E0358B248B26EC30E0F9
:100DE000378B268B118E128E138E148EECE6F3E069
:100DF0001382128284839583A683B78386EF91E062
:100E0000918380830895CF93DF93CDB7DEB72E977C
:100E10000FB6F894DEBF0FBECDBF789484B5826064
:100E200084BD84B5816084BD85B5826085BD85B58E
:100E3000816085BD80916E00816080936E0010920C
:100E40008100809181008260809381008091810087
:100E50008160809381008091800081608093800018
:100E60008091B10084608093B1008091B000816076
:100E70008093B00080917A00846080937A008091A2
:100E80007A00826080937A0080917A0081608093FA
:100E90007A0080917A00806880937A001092C10075
:100EA000E091DF02F091E00282E08083E091DB02DA
:100EB000F091DC021082E091DD02F091DE028FEC15
:100EC00080831092E702E091E302F091E40286E071
:100ED0008083E091E102F091E20280818061808371
:100EE000E091E102F091E202808188608083E091EC
:100EF000E102F091E202808180688083E091E1026A
:100F0000F091E20280818F7D808388E192E00E94EF
:100F1000A20385E192E00E94A2031092C602109201
:100F2000C5021092C4021092C3020E94A7028CE86C
:100F300090E09093C2028093C1028DE890E090937C
:100F4000C0028093BF0284E18093BA0086E094E0FF
:100F50009093C8028093C70281E08093C9028EE01B
:100F6000E2ECF1E0DE01119601900D928A95E1F735
:100F70007E0123E0E20EF11C11E0812C44E2942E6C
:100F800044EFA42EB12C50E8452E5EE3552E612C83
:100F9000712CF701219131917F0150E040E0C501B2
:100FA000B4010E945A08CA01B901A30192010E942A
:100FB0005A08223031054105510508F048C01F5F2D
:100FC000173039F78CE08093000162E088E00E94DE
:100FD000440262E089E00E94440262E08AE00E94EA
:100FE000440280E0A82E80E0B82E93E3992E22E3FD
:100FF000822E31E3732E8AE00E94ED017C0189E0AC
:101000000E94ED018C0188E00E94ED01E114F104E1
:1010100099F40130110531F4019721F47092020125
:101020000E942003A114B10431F30E9421018823FE
:1010300011F30E940000DFCFEA94EF2899F7011521
:10104000110571F5019771F780920201E9CF163011
:1010500009F4B8CF1092800088E0809381008091DD
:101060008100182B10938100309389002093880011
:1010700080916F00826080936F0061E08091000139
:101080000E94440260E08BE00E94440261E08AE03A
:101090000E9444026091C9028AE00E94160292CF27
:1010A0000130110509F0BECF892B09F0BBCF90921A
:1010B0000201B6CFA1E21A2EAA1BBB1BFD010DC077
:1010C000AA1FBB1FEE1FFF1FA217B307E407F507F8
:1010D00020F0A21BB30BE40BF50B661F771F881FD4
:1010E000991F1A9469F760957095809590959B016A
:1010F000AC01BD01CF010895EE0FFF1F0590F491E3
:08110000E02D0994F894FFCFE3
:101108000C5020207075736820627574746F6E209F
:10111800697320707265737365642A2A2A2A2A2AD9
:10112800382C000000000000000000000000000053
:1011380000000000000000000000000000000000A7
:101148000000000000000000000000000000000097
:101158000000000000000000000000000000000087
:101168000000000000000000000000000000000077
:101178000000000000000000000000000000000067
:101188000000000000000000000000000000000057
:101198000000000000000000000000000000000047
:1011A8000000000000000000000000000000000037
:1011B8000000000000000000000000000000000027
:1011C8000000000001000800400000010004050DB7
:1011D8000D0E131516191A1C232526292A2C32340C
:1011E800000000005701B700E400A4011501F30056
:1011F800070100000000FA02EF020B03C502E80233
:10120800D502C60254656D70657261747572653A6F
:1012180020002043000D0A00536C617665203100E0
:00000001FF
